:020000040800F2
:10980000504B0020999900089D9900089F990008E5
:10981000A1990008A3990008A5990008000000007C
:109820000000000000000000000000000199000896
:10983000A9990008000000004599000835DD0008DE
:10984000AF990008AF990008AF990008AF990008D8
:10985000AF990008AF990008AF990008AF990008C8
:10986000AF990008AF990008AF990008AF990008B8
:10987000AF990008AF990008AF990008AF990008A8
:10988000AF990008AF990008AF990008AF99000898
:1098900019E40008AF990008AF990008AF990008D3
:1098A000AF990008AF990008AF990008AF99000878
:1098B000AF99000861DD000895DD0008AF99000848
:1098C000AF990008AF990008AF990008AF99000858
:1098D000AF99000869DF0008AF990008AF99000848
:1098E000AF990008AF990008AF990008DFF80CD0D5
:1098F00000F058FD00480047710E0108504B002051
:10990000224B19680868B0E8F00F80F30988BFF3AC
:109910006F8F4FF0000080F311884EF00D0E7047EE
:109920000000000006480068006880F3088862B6FE
:1099300061B6BFF34F8FBFF36F8F00DF00BF00BF73
:1099400008ED00E0EFF30980BFF36F8F0F4B1A684B
:1099500020E9F00F106008B54FF0BF0080F31188C8
:10996000BFF34F8FBFF36F8F09F00EF84FF0000079
:1099700080F31188BDE8084019680868B0E8F00F66
:1099800080F30988BFF36F8F704700BFDC000020B1
:10999000EFF305807047000005480047FEE7FEE74B
:1099A000FEE7FEE7FEE7FEE7FEE7FEE7FEE7FEE78F
:1099B000ED9800082DE9F0410024061B254671F1C1
:1099C000000605DA01240027D0EB070067EB010150
:1099D000161E73F1000605DA0027D2EB07020125F7
:1099E00067EB030300F0A0FB86460E4617469C4635
:1099F000AC4204D00025D0EB050E65EB010624B186
:109A00000020D2EB000760EB030C704631463A466B
:109A10006346BDE8F08140EA01039B0703D009E0FB
:109A200008C9121F08C0042AFAD203E011F8013B4A
:109A300000F8013B521EF9D27047D2B201E000F8A3
:109A4000012B491EFBD270470022F6E710B51346E2
:109A50000A4604461946FFF7F0FF204610BD421C97
:109A600010F8011B0029FBD1801A704710B50022A5
:109A700000E0521C835C8C5CA34201D1002BF8D126
:109A8000D8B2E1B2401A10BD034611F8012B00F81C
:109A9000012B002AF9D118467047F0B480EA010280
:109AA000D40F4200B2EB410F02D2024608461146E3
:109AB0004A0042D0C30DDDB2C1F3C752AD1A202D0A
:109AC00035DAC1F3160141F4000204B15242C5F186
:109AD000200602FA06F12A411044B3EBD05F23D0EE
:109AE000C4B1012DA0EBC35009DCF0BC4FF0004223
:109AF00002EAC352DBB200F5000000F080BB400078
:109B000000F1807000EBC350A0F1807040EAD1708A
:109B1000490009E0490841EAC071A0EBC35000F5D3
:109B20000000400800EBC350F0BC00F05FBB614296
:109B3000012202EB4101001BF6E7F0BC704781F007
:109B40000041AAE780F00040A7E780EA010210B5D3
:109B500002F00043400022D04A001FD0010E01EB6A
:109B60001261C0F35600C2F3560240F4000042F402
:109B70000002A0FB022000047F39140400D0401C26
:109B800050EA124001D44000491EC2B20C0604EB58
:109B9000D010401C4008802A02D003E0002010BDF5
:109BA00020F00100002900DA0020184310BD30B475
:109BB00080EA010202F0004530F0004221F000404E
:109BC00013D090B1C30DD40DC2F31601C0F316002B
:109BD000E41A41F4000140F400027D34914201D3C3
:109BE000641C00E04900002C02DA30BC0020704701
:109BF0004FF400000023914201D3891A0343400827
:109C00004FEA4101F7D151B1914202D14FF00041E9
:109C100005E002D24FF0010101E06FF0010103EB1A
:109C2000C450284430BC00F0E1BA420005D0C0F373
:109C3000C7525242914201DC0020704700EBC150F4
:109C400070472DE9FE4F804681EA0300C00F0C46A5
:109C5000009021F0004123F00045B8EB0200A9413B
:109C600005D24046214690461C460B46024623F04C
:109C70000040104347D0270DC7F30A00C3F30A5131
:109C80000290401A019040286BDAC3F3130040F4AD
:109C9000801B0098924620B10023D2EB030A63EBAD
:109CA0000B0B01985946C0F14002504600F06DFA86
:109CB00006460D4650465946019A00F085FA10EBCB
:109CC00008006141002487EA115284EAE7731A43CD
:109CD00040D0009A62B3019A012A4FEA075215DC7C
:109CE000001B61EB02014FF0004202EA0752CDE98E
:109CF0000042001C41F5801132462B4600F0BCFAB0
:109D000003B0BDE8F08F40462146F9E7001B61EB48
:109D10000201001C41F5801300185B412018A2F5D8
:109D2000001747EB030140EAD570B6196D4111E009
:109D30006D084FEA360645EAC0754FEA0752001B28
:109D400061EB0201001C41F5801149084FEA300027
:109D50000019514132462B4603B0BDE8F04F00F0E8
:109D60007CBA0098012240000023D0EB020263EB92
:109D7000E073009821464FEAE074B8EB000061EB15
:109D80000401E9E783F000435BE781F0004158E715
:109D90002DE9FE4F81EA030404F0004421F0004164
:109DA00000944FF0000B23F0004350EA01045ED012
:109DB00052EA03045BD0C3F30A54C1F30A552C449E
:109DC000A4F2F3340194A0FB0254C1F3130141F453
:109DD0008011C3F3130343F4801301FB024400FB1F
:109DE000034E840A970A44EA815447EA8357A4FB46
:109DF000076802958D0A05FB07854FEA932C04FB43
:109E00000C542705029D4FEA065847EA1637B5EB72
:109E100008056EEB070C870E920E47EA811742EA9F
:109E20008312A7FB0201B6EB0B0164EB00042B0DC0
:109E300043EA0C335E1844EB1C50DA465146E7FB0C
:109E40000201C5F313044FEA0B3343EA14534FEAFC
:109E50000432019C43EA0603A4F10C040294009C22
:109E6000CDE900B400F008FA03B0BDE8F08F00209F
:109E70000146F9E72DE9F04D81EA030404F0004BB7
:109E800021F0004514464FF0000A23F0004150EA4B
:109E9000050220D054EA01021DD0C5F30A5702463C
:109EA000C5F31303C1F31300C1F30A5640F4801540
:109EB00043F48013A7EB0608101BD64608F2FD38C2
:109EC00073EB050002D308F1010801E092185B4131
:109ED000B8F1000F03DA00200146BDE8F08D002044
:109EE0004FF48011064684460EE0171B73EB0507FE
:109EF00005D3121B63EB050306434CEA010C49082A
:109F00004FEA300092185B4150EA0107EDD152EA66
:109F1000030012D082EA040083EA0501084305D059
:109F2000101BAB4106D20122002306E000224FF0B5
:109F3000004302E06FF0010253101AEB06004CEBF5
:109F4000085110EB0A0041EB0B01BDE8F04D00F0A9
:109F500084B9C10F80EAE0700844CA079623002143
:109F600000F04DB996230022114600F048B90EB515
:109F7000C10F80EAE0700844CA07002140F2334371
:109F80008DE80E000A460B4600F076F903B000BDDE
:109F90000EB540F2334102910021CDE900110A468D
:109FA0000B4600F069F903B000BD00F0004220F05C
:109FB0000040C10DC0F3160040F400007F2901DA13
:109FC00000207047962903DCC1F19601C84001E0EA
:109FD00096398840002AF4D04042704720F0004073
:109FE000C10DC0F3160040F400007F2901DA002003
:109FF0007047962903DCC1F19601C8407047963935
:10A000008840704770B5C1F30A5201F00045002442
:10A01000C1F3130140F2FF3341F480119A4201DA97
:10A02000002070BD40F233439A42A2F2334203DC77
:10A03000524200F0B9F800E090402C43F1D0404289
:10A0400070BDC1F30A5210B5C1F3130140F2FF33E2
:10A0500041F480119A4201DA002010BD40F23343EE
:10A060009A42A2F2334203DC524200F09DF810BD46
:10A07000904010BD00F0004230F000400AD0C10D09
:10A0800001F56071C0F3160042EA0151C2084007B1
:10A090001143704700200146704701F0004330B47F
:10A0A00021F0004150EA010206D00A0DA2F56072CB
:10A0B000C1F31301002A02DC30BC00207047440FBA
:10A0C00044EAC104C100E01830BC00EBC25000F00B
:10A0D0008DB80000002801DBC0F10040002901DB41
:10A0E000C1F1004181427047002801DBC0F100400E
:10A0F000002901DBC1F100418842704730B50B46B1
:10A10000014600202022012409E021FA02F59D42A7
:10A1100005D303FA02F5491B04FA02F52844151E7B
:10A12000A2F10102F1DC30BD2DE9F05F054600200F
:10A1300092469B4688460646814640241BE02846B8
:10A1400041464746224600F02FF853465A46C01A69
:10A15000914110D311461846224600F016F82D1AE8
:10A1600067EB01084F4622460120002100F00DF860
:10A1700017EB00094E41201EA4F10104DFDC484624
:10A1800031462A464346BDE8F09F202A04DB203AA8
:10A1900000FA02F1002070479140C2F1200320FA3A
:10A1A00003F3194390407047202A04DB203A21FA38
:10A1B00002F00021704721FA02F3D040C2F12002E0
:10A1C0009140084319467047202A06DBCB17203AF6
:10A1D00041FA02F043EAE07306E041FA02F3D040AC
:10A1E000C2F1200291400843194670470029A8BFD8
:10A1F0007047401C490008BF20F00100704710B4B0
:10A20000B0FA80FC00FA0CF050EA010404BF10BC64
:10A21000704749B1CCF1200421FA04F411FA0CF191
:10A2200018BF012121430843A3EB0C01CB1D4FEACA
:10A2300000614FEA102042BF002010BC704700EBC5
:10A24000C35010440029A4BF10BC7047401C4900F3
:10A2500008BF20F0010010BC704710B5141E73F148
:10A26000000408DA401C41F1000192185B411A43D6
:10A2700001D120F0010010BD2DE9F04D92469B4622
:10A2800011B1B1FA81F202E0B0FA80F220329046C8
:10A29000FFF77BFF04460F4640EA0A0041EA0B0144
:10A2A00053465A46084313D0114653EA010019D0C9
:10A2B000C8F140025046FFF777FF05460E4650466C
:10A2C00059464246FFF761FF084305D0012004E0EC
:10A2D00020463946BDE8F08D0020054346EAE07689
:10A2E0002C4337430A986305E40AA0EB08000022D8
:10A2F000FD0A44EA47540A3002D500200146E9E746
:10A30000010510196941DDE9084500196941BDE8F9
:10A31000F04DA2E770B521F0004303430CD0C1F328
:10A320000A550024D5EB040564EB0403D617AD1AD7
:10A33000B34102DB0020014670BD201841EB025101
:10A3400070BDC1F30A52C1F3130140F2FF3341F46F
:10A3500080119A4202DA00200146704740F23343EE
:10A360009A42A2F2334202DC5242FFF71DBFFFF7CE
:10A370000CBF000030B5041E71F1000404DB4FF087
:10A380000044404264EB0101141E73F1000405DB3C
:10A390001C464FF00043524263EB0403994208BF4E
:10A3A000904230BD064C074D06E0E06840F00103E6
:10A3B00094E8070098471034AC42F6D3FFF79AFAB6
:10A3C0004C3D01086C3D01082DE9F04D00231A4673
:10A3D0001B1A8A4103DB00200146BDE8F08DC1F362
:10A3E0000A52C1F3130141F480154FF0000BD1075D
:10A3F00002D100186D41521E0027044640F2FF11A1
:10A40000384601EB620A3E468046024600204FF481
:10A410008011FFF7C9FEC2197141BB1846EB01005C
:10A42000B4EB030C75EB000C04D3E41A65EB0005E8
:10A4300017460E46241908F101006D418046342864
:10A44000E3DDF91946EB0600091BA84103D24FF0E2
:10A45000FF32134601E0002213461BEB070046EBD8
:10A460000A51BDE8F04DFFF7F8BE70B58C1810F832
:10A47000015B15F0070301D110F8013B2A1106D149
:10A4800010F8012B03E010F8016B01F8016B5B1E63
:10A49000F9D12B0705D40023521E0DD401F8013B3E
:10A4A000FAE710F8013BCB1A921C03E013F8015BAA
:10A4B00001F8015B521EF9D5A142D8D3002070BD2E
:10A4C0000029816802D041F0010101E021F0010181
:10A4D0008160704710B50446012186B0480202F041
:10A4E0004FFE00214FF460208DF810408DF80410CD
:10A4F000CDE902010A4C00918DF80510694620460D
:10A5000000F03CF801212046FFF7DAFF204600F07A
:10A510009DF8204600F006F80128FAD006B010BDDC
:10A5200000240140014600208968490700D5012028
:10A530007047C06C80B270470246002012680A4221
:10A5400000D001207047000010B50B4C01460023DD
:10A550000122204600F036F80121204600F06CF878
:10A5600002212046FFF7E8FF0028F9D02046FFF738
:10A57000E0FF00B210BD00000024014010B54268A9
:10A580000E4B0C791A400B6842EA042213434360D5
:10A5900083680B4A1340D1E9024222434C7943EAD3
:10A5A00044031A438260C26A097C22F47002491E85
:10A5B000C9B242EA0151C16210BD0000FFFEF0FFC6
:10A5C000FDF7F1FF70B5072409290AD9C568A1F183
:10A5D0000A0606EB4606B440A543B3401D43C560DA
:10A5E00007E0056901EB4106B440A543B3401D43B4
:10A5F00005611F23072A09D2446B521E02EB820217
:10A6000093409C4391400C43446370BD0D2A09D292
:10A61000046BD21F02EB820293409C4391400C4397
:10A62000046370BDC46A0D3A02EB820293409C43FE
:10A6300091400C43C46270BD0029816802D041F48E
:10A64000A00101E021F4A00181607047816841F020
:10A65000040181607047000010B50C4CFFF782FCCC
:10A660002146FFF7A4FAFFF705FD094A094B06F05A
:10A6700033FC0022084BFFF788FB0022074BFFF753
:10A6800087FBBDE81040FFF708BD000080E6C54726
:10A6900024D1CB28965BC83F0000F03F40A5E540A1
:10A6A00010B50A4CA06808F0B1F8E06808F0AEF800
:10A6B000606808F0ABF806484FF47A71806891FB47
:10A6C000F0F00449896B484310BD000034000020BD
:10A6D0006C000020A000002010B5012002F05CFDFD
:10A6E000BDE81040002002F057BD000008B5024947
:10A6F00008440090008808BD006C004008B5024A7C
:10A7000010440090016008BD006C00400027DFF895
:10A710005C80174E174C0125D8F804004FF47A716D
:10A72000484307F0B7FF124800F026F87068C4F8F5
:10A73000DC00B168C4F8E410CC34FFF78DFF606131
:10A74000706802F029FB20626577257765712571B5
:10A7500004F88E7C3068FFF741FC04F88F0C04F895
:10A760008D5C04F88C5CCC3CD6E7000088000020AF
:10A77000CC0B0020AC0500207CB5044608232569DD
:10A78000C07D6A46F721A84705002BD1BDF804001B
:10A790009DF8031040BA61F31F400009214600F004
:10A7A0006DF9FFF7D6FB1049FFF701FAA060BDF87D
:10A7B00001009DF8001040BA61F31F4000092146D6
:10A7C00000F0AAF8000A6060BDF80600214640BA11
:10A7D00000F068F8FFF7C6FB6FF00901FFF725FAF4
:10A7E000206028467CBD00000000C842F8B5040087
:10A7F00055D0A269002A52D018232569E07D88210E
:10A80000A84705004AD1A2690123A1212669E07D5C
:10A810001832B047A2690223E1212669E07D1A328D
:10A82000B047A2690123E3212669E07D1C32B047CD
:10A83000A2690123E7212669E07D2232B047012386
:10A840002669E07D6A46E421B0479DF801009DF845
:10A85000001000F0070040EA0110A169C8839DF8CC
:10A8600002009DF8031000F0070040EA0110A16902
:10A870000884A07D617D4007000E01F0070140EAD9
:10A880008102F421E368E07DD21C9847207DE368D3
:10A8900000F00702E07DF22198472846F8BD01202C
:10A8A000F8BD000010B5830388691A4AC18B12688D
:10A8B000A3EB0151B0F92030A2F5963203FB12113F
:10A8C00090F92230047F534354434FF400429B12CB
:10A8D00002EBE42253434FF4001202EBA322B0F93F
:10A8E0001A3001F580415A4302F50052C913921300
:10A8F0005143CA135243007ED2114243B1EB22109E
:10A9000001D5002004E04FF0C851884200DD084620
:10A91000001310BDE80100202DE9F05F8346554883
:10A92000554A4FF0000A0068C317821843F1FF3000
:10A93000A2FB023400FB024402FB00458C69B4F91F
:10A940001060B4F90E10A3FB069CF71705FB06C6B2
:10A9500003FB0768A1FB027CCE1706FB02C601FBC6
:10A9600000614E0446EAD7367F0417EB090746EB31
:10A970000806B4F90C101AEB070946EBC101B4F94B
:10A980000A60A3FB06C805FB06854FEAE67703FBD2
:10A990000753B4F908604FEA1C25A6FB02C84FEA2A
:10A9A000E67707FB028206FB00204FEA003245EA09
:10A9B00003654FEA0C3042EA1C52281842EB23236D
:10A9C000001CE28843F50045A0FB027605FB02620D
:10A9D00000FB0A204210C31752EA030048D0CBF50F
:10A9E0008010C517ED07C60745EA5005B6EB090606
:10A9F00040F63547A6FB070C65EB010505FB07C5CF
:10AA0000002106FB0151FEF7D5FFB4F91630420BC9
:10AA100042EAC142A3FB027CDD1705FB02C54E13CF
:10AA200003FB0653A7FB025C03FB02C207FB0622E3
:10AA30006B0E43EAC2135616B4F91420A2FB007C35
:10AA4000D51705FB00C502FB0155FA0CC01842EAF8
:10AA500045327141801841EBE5414FEA102040EA50
:10AA60000160B4F912104FEA01114018BDE8F09FDF
:10AA70000020FBE7E8010020000CFEFF10B589690B
:10AA8000C3100A88B1F90240C2EB20104043B1F96B
:10AA900004100013A3EB4203484363430449DB1251
:10AAA00003EBA030086000EB80008030001210BD86
:10AAB000E801002038B5047D0123C5686A46D0212D
:10AAC0002046A8479DF80000552801D0012038BD38
:10AAD000002038BD104800F095F80F4D0F4F104C76
:10AAE0005FF0010678684FF47A71484307F0D2FDB1
:10AAF000094800F017F8686844F8DC0F2968A1607D
:10AB0000FFF7AAFD6060686802F046F9206166738D
:10AB10002673DC3CE6E70000840B00208800002060
:10AB2000AC0500202DE9F041064600F0DFF8304684
:10AB300000F0B4F8B469304F60893968B4F9142072
:10AB4000081A21894843B4F91210C013C9020244FB
:10AB500091FBF2F1451805F108000011FFF7F9F932
:10AB60002649FFF724F83060A5F57A65B4F90E1090
:10AB700005FB05F000134143B4F90220C9126A43F2
:10AB800001EBE221B4F9002001EB8201727D9140DA
:10AB9000891C8B10B4F904106943B4F90C504913A3
:10ABA000454301EB2540801C8010E18800F5004002
:10ABB00041437868C90BC01A4CF25033D340584314
:10ABC000B0F1004F03D24000B0FBF1F002E0B0FB67
:10ABD000F1F040000112494340F6DE325143084A89
:10ABE0000914424301EB224101F6CF6100EB211031
:10ABF0007060BDE8F0810000E0010020000020410D
:10AC000043E3FFFF30B587B0044600F08BF816230E
:10AC1000E568207D6A46AA21A84700283BD1BDF8F7
:10AC20000010A26949BA1180BDF80210A26949BAA0
:10AC30005180BDF80410A26949BA9180BDF8061090
:10AC4000A26949BAD180BDF80810A26949BA118138
:10AC5000BDF80A10A26949BA5181BDF80C10A26969
:10AC600049BA9181BDF80E10A26949BAD181BDF8E7
:10AC70001010A26949BA1182BDF81210A26949BA2E
:10AC80005182BDF81410A26949BA918214B1A16928
:10AC9000002900D1012007B030BD000038B50446BE
:10ACA000407D342101EB8010C2B2A368207DF421E5
:10ACB00098472169642088470323E568207D6A4618
:10ACC000F621A8479DF800009DF80110000400EB54
:10ACD00001209DF802100844617DC1F10801C840BF
:10ACE0000149486038BD0000E001002038B5044645
:10ACF0002E22A368007DF4219847216932208847DD
:10AD0000207DE46802236A46F621A0479DF80100F1
:10AD10009DF8001000EB01200149086038BD0000DB
:10AD2000E001002010B50446016964208847B6227E
:10AD3000A368207DE02198472169BDE81040642088
:10AD40000847000070B5134E4FF480752946304611
:10AD500002F018F8104C48B1207838B90120207062
:10AD6000002000F04DFC002000F064F82946304639
:10AD700002F008F800280BD12078002808D0002025
:10AD8000207000F03DFCBDE87040012000F052B89A
:10AD900070BD0000001001403400002004F022BE0D
:10ADA00038B5144D6868002823D013494978002924
:10ADB0001FD101F0D9FE03F057FF462007F032F80B
:10ADC000040016D068684069B0F904100091B0F929
:10ADD0000230B0F9002009A1204604F061F81448BF
:10ADE0002146006802F0A6F92046BDE8384007F089
:10ADF00027BC38BD940000209C06002043616C698C
:10AE000062726174656420746F205A65726F20707D
:10AE10006F736974696F6E2E204F66667365747305
:10AE20003A2025692C2025692C2025690A0000007C
:10AE300064000020054910B581F83400002803D0D3
:10AE4000FFF72EFC0249086110BD0000A0000020A1
:10AE50006C0000201CB500210120CDE90001074B4A
:10AE60006422074807F0FAFF012805D0BDE81C401E
:10AE700004A10D2000F0EEBB1CBD0000B8020020B4
:10AE8000C1AE00084368616E6765205365747469DC
:10AE90006E6773205461736B3A204E6F7420637237
:10AEA000656174656421204E6F7420656E6F7567EF
:10AEB0006874206D656D6F72792E0D0A00000000B8
:10AEC0002DE9F04104460088284DC0F30721284EA3
:10AED0002848294F092942D2DFE801F005080B0E66
:10AEE0001114232B3A006068A86338E0207970734E
:10AEF00035E06168016032E0616841602FE06168BF
:10AF000081602CE06068FFF724F83946FEF74FFEB9
:10AF100068626068FFF71DF83946FEF748FEA862D0
:10AF20001DE06068FFF715F83946FEF740FE306017
:10AF300015E06068FFF70DF83946FEF738FEE86265
:10AF40006068FFF706F83946FEF731FE286306E031
:10AF50006068FEF7FEFF3946FEF729FE706003F0D9
:10AF600083FEBDE8F041002007F0ACBBA00000204C
:10AF70006C0000208800002000007A441048416ADC
:10AF8000002901DA00207047416A490001D50120FB
:10AF90007047416A890001D502207047416AC900A3
:10AFA00001D503207047416A090101D5042070478B
:10AFB000406A400101D50520704706207047000017
:10AFC000001002402DE9F04107460E4604240846D1
:10AFD00000F010F8054604E030193946FEF746FD4A
:10AFE00030B12046641CA842F6D30020BDE8F081B1
:10AFF0002046FBE70068411C00D10020704700009C
:10B000000349086008B10020704704207047000021
:10B01000F00100202DE9F0410F4615460646114685
:10B02000FFF7D0FF040017D03046FEF718FD20448C
:10B03000401C2E5C401C295C401C2A5C401C01EB1F
:10B0400002218CB2291822463846FEF7E4FC022E73
:10B0500005D0042E05D005E00020BDE8F08164088D
:10B0600000E0A4082046F8E72DE9F0478046089C58
:10B070001F46164689462046FFF7BCFF0546214677
:10B080004046FFF79FFF10B10320BDE8F087082D71
:10B0900001D9681C00D1082560194146FEF7F4FC6F
:10B0A0004046FEF7DCFC0544002060556D1C4FF661
:10B0B000FF7067556D1C022F02D0042F03D004E0EF
:10B0C00000EA460601E000EA860666556D1C300A75
:10B0D00060556D1C601932464946FEF79CFC0848D5
:10B0E000A919026832B10D4604F108009047C4E97D
:10B0F000005002E00020C4E900100020C5E7000075
:10B10000F001002038B5DE208DF800000E48022145
:10B1100090F841008DF80100684602F0E9FB282014
:10B1200006F080FE04000AD09DF80120002307A14C
:10B1300003F0B6FE0B482146006801F0FBFF2046F5
:10B1400007F07EFA38BD00007802002053656E7368
:10B150006F722025642064656C657465642E0D0A29
:10B1600025630000640000201CB5434E0124707864
:10B17000B0B942480325CDE900500023462240A142
:10B18000424807F06BFE00F001043C480023001D1C
:10B19000CDE9005046223EA1404807F05FFE044042
:10B1A000364801250830CDE9005000231E223CA17D
:10B1B0003F4807F053FE00EA0407304800230C30F4
:10B1C000CDE9005032223BA13E4807F047FE00EA9D
:10B1D00007042A4800231030CDE900504FF47A725A
:10B1E00039A13D4807F03AFE0027CDE90057044059
:10B1F0003B461E2239A13D4807F030FE044030791D
:10B2000040B9CDE900570023462239A13C4807F058
:10B2100025FE0440B07840B9CDE90057002346220E
:10B2200038A13C4807F01AFE0440F07840B9CDE957
:10B2300000570023642233A1374807F00FFE044073
:10B240001CB936A10D2000F005FA07F0F1FB02460B
:10B2500045483DA33EA1006801F030FF434D4AF64A
:10B26000AA2400BF03F0A8FCFFF76CFD2C60FA20B5
:10B2700007F010FAF6E700009C0600203C000020D2
:10B280004C656473205461736B20310071C30008F6
:10B290004C656473205461736B2032005DC40008F8
:10B2A00052544320636F7272656374696F6E00005D
:10B2B00051D300085A45524F206275666665722068
:10B2C0005553420075ED00084C6F6720746F205392
:10B2D0004420636172640000C5C7000852656C6158
:10B2E000792053776974636800000000A1D20008D8
:10B2F000496E742048756D696469747900000000B6
:10B30000B5D60008496E7420507265737375726506
:10B3100000000000D5AA00080DA700085461736B57
:10B320003A204E6F74206372656174656421204E0B
:10B330006F7420656E6F75676874206D656D6F72D0
:10B34000792E0D0A00000000627974657300000018
:10B3500046726565206D656D6F72792061766169F1
:10B360006C61626C653A200064000020003000408F
:10B370007FB50446084806F037FE07490888CD79AE
:10B380008B794A798DE82D008B78CA7803A1204605
:10B3900003F086FD7FBD0000500B00202530326495
:10B3A0002E253032642E25346420253032643A252F
:10B3B0003032643A253032640000000038B504466B
:10B3C000074806F011FE06490888A0F5FA600090CB
:10B3D0008B78CA7803A1204603F062FD38BD0000D7
:10B3E000500B0020253032645F253032645F2532F7
:10B3F0006400000070B5194C94F841000F282CD25D
:10B40000174D00235A1E1946286807F05DFB0128D6
:10B4100023D1002004F5807294F8411005E0231830
:10B4200093F842301354401CC0B28142F7D8012235
:10B430000CA10D4804F0D4FF0C4805F0A3F90B490A
:10B44000062201F1100004F0F1FF2868BDE8704009
:10B4500000231A46194607F003BC70BD780200208D
:10B460005400002000000000E406002078030020C3
:10B470007CB5044600788DF8050020880026050A72
:10B480008DF80450607E401E054019D0E07E009586
:10B490000028207E636808D0E668022201A9B04730
:10B4A00006466169A07E884704E02669022201A958
:10B4B000B04706462089401B2081208828442080F0
:10B4C0002089C8B3C6BB22E0E17E0090207E63687D
:10B4D00041B1E568022201A9A84706466169A07E3C
:10B4E000884704E02569022201A9A8470646607E34
:10B4F0006168014461602189091A21812188084419
:10B5000020808DF805002088000A8DF8040021892C
:10B51000607E8142D8D20804000C0ED0E17E0090FB
:10B52000207E636859B1E568022201A9A847054653
:10B530006169A07E884707E0FFE730467CBD24694B
:10B54000022201A9A047054628467CBD2DE9F0410D
:10B5500007461D4690460E461C2006F063FC044636
:10B5600046600D486061A0202076E5762780202087
:10B5700060763220A076A4F8088008482061084848
:10B58000E0602046FFF774FF0546204607F058F8B4
:10B590002846BDE8F0810000952601082DBB000873
:10B5A0000DBC000801078A0E07490A44D2F8001CA6
:10B5B000000602D548F6CF7001E04CF68F700140CE
:10B5C000C2F8001C70470000005000400207930EB4
:10B5D0000A4A1344D3F8002C000605D501F03000C8
:10B5E000504048F6BF7104E001F4405050404BF623
:10B5F0008F710840C3F8000C7047000000500040F5
:10B6000030B40F4A0F4B104C104D114948B1012076
:10B6100010755068D860E060E860C86AC861086B5F
:10B6200008E0002010751068D860E060E860486AA3
:10B63000C861886A086230BC0120FFF7FBBB0000CC
:10B640006C0000200C0C00201C0C00202C0C002096
:10B65000A000002070B50E46002822D0152006F06C
:10B66000E1FB0546FFF784FE304602F059FB193036
:10B6700006F0D8FB044633462A460AA103F010FC24
:10B68000204602F04DFB02460023214607A001F0B0
:10B6900039F8284606F0D4FF2046BDE8704006F091
:10B6A000CFBF70BD25732025730000004552524C5A
:10B6B0004F472E5458540000F0B5CA78002502F0C8
:10B6C0000F03D20601D58A7813430A784FF00F0E84
:10B6D00012F0FF0F4FF001021CD004680F8802FA2D
:10B6E00005F63740B74211D14FEA850C0EFA0CF738
:10B6F00024EA070703FA0CF43C43CF78282F02D042
:10B70000482F02D002E0466100E006616D1C082D62
:10B71000E4D304600C88FF2C1ED944685FF0000657
:10B7200006F1080702FA07F50F882F40AF420FD144
:10B730004FEA860C0EFA0CF7BC4303FA0CF73C43B5
:10B74000CF78282F00D14561CF78482F00D10561EF
:10B75000761C082EE4D34460F0BD4161704701615E
:10B76000704700007CB506F05DFD012145F23D20EB
:10B7700001F006FD0121304801F0F6FC01214020D6
:10B7800001F0E6FC2E492D4848602E4C022120464F
:10B7900001F0CDFA0421204601F0E7FA0421204609
:10B7A00001F0D4FA2115204601F0D2FAE114204626
:10B7B00001F0CEFA0121204601F0CAFAA115204677
:10B7C00001F0B5FAA114204801F0C0FA06F048FCD7
:10B7D00000F01EFC00F062FC00F09AFC01F0B6F9EB
:10B7E00000F032F900F0FAFC00F01EFD00F0D2FC8F
:10B7F0000D20FEF76FFE00200125CDE90050034625
:10B80000642212A1144807F029FB144C00233222B1
:10B8100061680840606004F11C00CDE9005010A18F
:10B82000124807F01BFB61680840606001D00020EF
:10B830007CBD01207CBD000000400018010000021A
:10B840000000014000100140000C0140496E697485
:10B85000205461736B00000001C00008000000204C
:10B8600053442048616E646C657200004DD6000838
:10B8700038B50D4601460C4814460129006808D029
:10B880000AA101F057FC6A462946104801F0FAFD6A
:10B8900038BD0FA101F04EFC0023A2B22946184684
:10B8A000FFF754FE38BD000064000020547279692F
:10B8B0006E6720746F206765742044422066726F43
:10B8C0006D20534420434152440A00005C00002094
:10B8D000547279696E6720746F20676574204442E2
:10B8E0002066726F6D20454550524F4D0A00000092
:10B8F00008B557208DF800000121684601F0F8FFD7
:10B9000008BD0000114810B50F4A0021006807F07B
:10B910004EFA012811D00E480B4A0021006807F0AA
:10B9200046FA01280B494FF040024FF0810008D041
:10B93000C031BDE8104003F019B94022054981200B
:10B94000F7E78031F5E70000240000200C0000201C
:10B95000100000207802002070B5344C8220354D54
:10B9600020703348806B2860E8786070A878A070F9
:10B970006878E070287820712F48407B60712F48EC
:10B9800001880A0AA271E17181880A0A2272617231
:10B990000089010AA172E07225482949406AFEF730
:10B9A000D4F8FEF702FB2860E8782073A87860736B
:10B9B0006878A0732878E0731F4821490068FEF773
:10B9C000C4F8FEF7F2FA2860E8782074A87860746A
:10B9D0006878A0742878E07415481949C06AFEF7A1
:10B9E000B4F8FEF7E2FA2860E8782075A878607568
:10B9F0006878A0752878E0750F4811494068FEF70F
:10BA0000A4F8FEF7D2FA2860E8782076A878607665
:10BA10006878A0762878E0760A4800231A460068FD
:10BA2000BDE87040194607F01BB9000078020020FD
:10BA3000A00000202C0000206C00002088000020C6
:10BA400000007A440C0000201CB50C480024026859
:10BA5000001D0068094908310968104448406946DA
:10BA600003F04EF9064A462069460B5D1354641CE8
:10BA7000801CC0B2E4B25628F7D11CBDE8F7FF1F06
:10BA80006C010020034804498078085C0349087071
:10BA90000120704764010020490100201049002066
:10BAA00002480349007808700120704748010020CF
:10BAB00010490020074810B5C078012804D002289A
:10BAC00006D0032802D103E0FFF71CFF012010BDC0
:10BAD000002010BD640100200348044AC17880782A
:10BAE000115401207047000064010020490100202A
:10BAF00002480349807808700120704764010020E3
:10BB000048010020074810B5C078012808D0022855
:10BB100002D0032802D103E001F0FCFC012010BD9B
:10BB2000002010BD6401002004F03CB82DE9F8436A
:10BB30001E46114D00231746884681465A1E194657
:10BB4000089C686906F0C0FF33463A4641464846BD
:10BB5000009401F003FF040005D00848C168491CA7
:10BB6000C16001F037FF00231A461946686907F0E3
:10BB700077F82046BDE8F883000000209C060020EE
:10BB8000FFB51C46104D00231646074681B05A1ECD
:10BB90001946686906F098FF3346012202A9384623
:10BBA000009401F0DBFE040005D00848C168491C80
:10BBB000C16001F00FFF00231A461946686907F0BB
:10BBC0004FF805B02046F0BD000000209C06002084
:10BBD000044A00284FF04001104601D001F0B6B8E9
:10BBE00001F0B2B8000C01408021014801F0CAB850
:10BBF000000C0140044A00284FF08001104601D09B
:10BC000001F0A4B801F0A0B8000C01402DE9F84300
:10BC10001E46114D00231746884681465A1E194676
:10BC2000089C686906F050FF33463A46414648464C
:10BC3000009401F081FF040005D00848C168491C48
:10BC4000C16001F0C7FE00231A461946686907F073
:10BC500007F82046BDE8F883000000209C0600207D
:10BC600037B5114D0023044682B05A1E1946686943
:10BC700006F02AFF01200246009004AB03A92046EB
:10BC800001F05AFF040005D00848C168491CC16092
:10BC900001F0A0FE00231A461946686906F0E0FF8D
:10BCA00005B0204630BD0000000000209C060020AA
:10BCB0001FB5084890F84540102C0AD800F1400103
:10BCC0006846621DFDF7A7FE641DE1B2684601F0FB
:10BCD0000FFE1FBD78020020F0B589B0FFF74EF9C6
:10BCE00004461822624902A8FDF795FE684D61A13D
:10BCF000286801F01FFA02A850F82410286801F003
:10BD000019FA4FF4FA7006F0C5FC012006F0AEFEF9
:10BD1000604C6061012006F0A9FEA061012006F0E0
:10BD2000A5FEA060012006F0A1FEE060012006F063
:10BD30009DFE2061002204210A2006F0A9FE56493A
:10BD40000860574855494160642101805549816028
:10BD50005549C1605549016101F0DAFD5548544922
:10BD6000564F554E8760C0E9036103214175EE21AE
:10BD7000017553498161FEF79DFE524CEC21A07084
:10BD80005148C0E90376C17505210175817541757A
:10BD90004E498161FEF72AFDE0704D488021C0E9DF
:10BDA000027601740126467401F072FC20710628A7
:10BDB0005AD018B147A10320FFF74CFC002001F036
:10BDC000BFFB01F04BF86072021E13D047A348A1DD
:10BDD000286801F073F9012001F0B2FB01F03EF890
:10BDE0006072020006D041A34CA1286801F066F9F8
:10BDF00002F03AFF00F0A6FB6070062836D018B1BA
:10BE000053A10220FFF726FC224800232030CDE971
:10BE10000060962255A1594807F020F80024CDE98A
:10BE200000642346962256A1574807F017F8CDE93B
:10BE300000640023962255A1564807F00FF856A13A
:10BE4000286801F077F92020FEF750FC5C498875DE
:10BE500002F0CAFA012002F019F94FF400715948B2
:10BE600000F074FF09B0F0BD57A1A4E75DA1C8E7D9
:10BE7000403101080D0A496E697469616C6973612A
:10BE800074696F6E2073746172746564210D0A00A9
:10BE900064000020000000203000002029BB0008C2
:10BEA000700B0020D1BB0008F5BB0008E9BB0008FF
:10BEB00081D40008840B002081BB000861BC00080D
:10BEC000A00B00209C060020CC0B0020E80B0020DB
:10BED000B80B002053493730303520756E6B6E6FCC
:10BEE000776E206572726F72210D0A0020000000CB
:10BEF0004572726F72206665746368696E6720446C
:10BF0000422066726F6D20534420436172642E207C
:10BF1000204572726F72206E756D3A004E6F20442C
:10BF20004220666F756E642E2057696C6C206372B8
:10BF30006561746520612064656661756C74206F4D
:10BF40006E652E20204572726F72206E756D3A00FC
:10BF50004D50553630353020756E6B6E6F776E20D4
:10BF60006572726F72210D0A0000000044617461F5
:10BF700020636F6C6C6563746F72000069B10008B8
:10BF80005553422052580000C5E400085553422042
:10BF900054580000F1E90008496E697469616C69E0
:10BFA000736174696F6E207061737365642073755B
:10BFB000636365737366756C6C79210D0A0000000C
:10BFC0006C000020001001405349373030352064A8
:10BFD0006F6573206E6F7420616E73776572210DCB
:10BFE0000A0000004D50553630353020646F6573BF
:10BFF000206E6F7420616E73776572210D0A0000E8
:10C0000010B5FFF769FEBDE81040002006F05ABBEE
:10C0100010B586B02820ADF8140018208DF8170050
:10C0200003201C4C8DF8160005A92046FFF744FBA1
:10C030001020ADF8140048208DF8170005A92046FF
:10C04000FFF73AFB0020ADF800004FF48271ADF825
:10C0500002106115ADF80800ADF80A103821ADF8EE
:10C060000C10ADF80400ADF80600ADF80E00072086
:10C07000094CADF810006946204601F00EFC002185
:10C08000204601F0EBFB0121204601F0F1FB06B058
:10C0900010BD0000000C01400030014010B586B01A
:10C0A0004FF42040ADF8140018208DF8170003203D
:10C0B0008DF8160005A91448FFF7FEFA4FF440402A
:10C0C000ADF800004FF48270ADF802000020ADF82A
:10C0D00008004FF40071ADF80A102021ADF80C10E3
:10C0E000ADF80400ADF80600ADF80E000720074CCF
:10C0F000ADF810006946204601F0CFFB0121204633
:10C1000001F0B6FB06B010BD000C01400038004045
:10C1100030B501218DB0084601F026F807A801F0DE
:10C1200041F80024ADF806406420ADF804000898FA
:10C1300042F210718000B0FBF1F0ADF80240ADF8B2
:10C1400000004FF080458DF808406946284601F010
:10C1500095FE7020ADF80C000120ADF80E00ADF892
:10C160001040BDF80400ADF812000220ADF8140034
:10C170000820ADF816004001ADF81800ADF81A40DF
:10C1800003A9284601F03AFE0121284601F024FEC9
:10C190000DB030BD3EB50121022000F0E5FF0020CA
:10C1A000ADF8060048F6A041ADF80200ADF8041065
:10C1B0004FF4FA61084CADF800108DF8080069469C
:10C1C000204601F05BFE01221146204601F00EFEE2
:10C1D0001D2000F0A1FD3EBD000400403EB5012140
:10C1E000042000F0C1FF4FF40070ADF806000020FD
:10C1F00044F25061ADF80200ADF804106421094C1E
:10C20000ADF800108DF808006946204601F036FEB2
:10C2100001221146204601F0E9FD1E2000F07CFDC0
:10C220003EBD00000008004038B54FF40070ADF886
:10C23000000018208DF8030002200D4C8DF802003C
:10C2400069462046FFF738FA2015ADF8000048206F
:10C250008DF8030069462046FFF72EFA012240F2CE
:10C260002551044801F0ACFE252000F055FD38BDF5
:10C27000000801400038014030B589B01D4CAA20AB
:10C280008DF81C0094F841008DF81D00022107A8CC
:10C2900001F02EFB082104F1420001F029FB1E20D1
:10C2A00005F0C0FD05001FD094F847000DF10C0CFF
:10C2B000002394F8492094F848108CE80F0094F873
:10C2C000440094F8462094F845108DE8070094F84F
:10C2D000433094F8422008A1284602F0E1FD1048BE
:10C2E0002946006800F026FF284606F0A9F909B0A3
:10C2F00030BD00007802002053656E736F722061BC
:10C30000646465642E20532F4E3A20255825582505
:10C3100058255825582558255825580D0A256300B5
:10C320006400002070B5C568044641682846FDF7E2
:10C330000CFC064629464FF07E50FDF700FC0146F6
:10C340006060A068FDF701FC01463046FDF7A5FBE3
:10C350002060A06070BD00000348044990F84100CF
:10C3600048750120FEF766BD780200206C000020B1
:10C370008CB0302233496846FDF74DFB314F324EC9
:10C38000DFF8C8A0DFF8C8B0DFF8C8806D46283FE6
:10C390000024707D002805EBC400818855F8340026
:10C3A00002D000F0D3FC01E000F0CEFC641CE4B24B
:10C3B000062CEED198F83400444610B9002006F05F
:10C3C0008DFAE069E16880F00040FDF783FE0BD84C
:10C3D000E169E068FDF77EFE06D88021504600F056
:10C3E000B5FC0121584625E0E169E068FDF7DFFB77
:10C3F00020F00040FDF7F2FDC0B26061092801DDC8
:10C400000920606157F8200006F044F9E169E0680E
:10C41000FDF76AFE08D2DFF840901021484600F090
:10C4200095FC2021484605E00221584600F08EFC8C
:10C430004021504600F08AFC606957F8200006F061
:10C4400029F9A5E7803101086C00002000080140AF
:10C45000000C0140A0000020001001408CB03022F0
:10C4600033496846FDF7D7FA314F324EDFF8C890AE
:10C47000DFF8C8A0DFF8C8806D46583F0024707D03
:10C48000002805EBC400818855F8340002D000F084
:10C490005DFC01E000F058FC641CE4B2062CEED117
:10C4A00098F83400444610B9002006F017FA206AC4
:10C4B000216980F00040FDF70DFE0BD8216A20694C
:10C4C000FDF708FE06D81021484600F03FFC4FF467
:10C4D00080611BE0216A2069FDF769FB20F00040C4
:10C4E000FDF77CFDC0B2A061092801DD0920A06133
:10C4F00057F8200006F0CEF8216A2069FDF7F4FD18
:10C5000006D22021484600F021FC0421504606E0D6
:10C510004FF40061504600F019FC0821484600F035
:10C5200015FCA06957F8200006F0B4F8A6E7000053
:10C53000B03101086C00002000080140000C0140EF
:10C54000A00000201CB5242005F06CFC174C1849F5
:10C55000606081601749416017490160D02101770F
:10C5600000218177C177062180F820100A214177C8
:10C570001249C16000F086FB207050B16068D22182
:10C58000017700F07FFB207018B1606806F058F862
:10C5900009E00B490220CDE900010023782209A11E
:10C5A0000C4806F05BFC20781CBD000094000020C5
:10C5B0009526010881BB000861BC0008C9CB0008B2
:10C5C000380000204C6576656C696E672054617395
:10C5D0006B000000D9C50008102005F023FC454C75
:10C5E000A0606168086144484861FEF759F8434D0E
:10C5F00028614FF47A7006F04DF8606800F0ECFAAC
:10C600000028FAD160680669B6F90200FDF7A1FCBE
:10C61000DFF8E480A8F13008C8F80800B6F9040093
:10C62000FDF797FC08F11007B860B6F90600FDF7B2
:10C6300090FC07F110094FF0000AC9F808002868BB
:10C64000C8F80C00F860C9F80C00687B0F2802D904
:10C65000504685F80DA02A49C0B251F82000A861C3
:10C66000297B4FF0804001F007FC224E0C36A86871
:10C6700006F010F896F83400A0B3606800F0ACFA49
:10C6800058BB6068D0F810B0BBF90200FDF761FC40
:10C69000C8F80400BBF90400FDF75BFC7860BBF947
:10C6A0000600FDF756FCC9F8040013483038FFF7C0
:10C6B00039FE11482038FFF735FE0F481038FFF7D4
:10C6C00031FED8F80000306038687060D9F800009A
:10C6D000B0600848A9690C308847286918B1401E25
:10C6E0002861C4E702E086F834A0C0E7002006F025
:10C6F000F5F8BCE7940000203C0C00206C00002002
:10C70000E03101082DE9F8431E46284C0023174666
:10C71000894680465A1E1946606806F0D5F90128F8
:10C720003DD1002003F06EFB214DA06069790143EB
:10C73000697158BB01221FA11F4803F051FE3EB191
:10C740001E49404603F0B4FF10B9404604F01AF801
:10C750001A49404603F0ACFF042823D00222414688
:10C76000174803F063FE20701548C16803F0A0FD70
:10C770006B463A464946124804F055F82070104876
:10C7800003F088FDA87921780843A87100231A4690
:10C790001946606806F064FA0098B84204D0012097
:10C7A000BDE8F8830622DAE70020F9E75000002010
:10C7B0009C06002000000000E4060020380B00204A
:10C7C0001409002088B0A2A0DFF88CA200680390B2
:10C7D000A0A0DFF888820068A14D4FF02C0B002448
:10C7E0000590A0484FF47A718068484305F052FFE5
:10C7F00099480F38FEF7E2FD97489BA12338096856
:10C80000C16180F820402330FEF7B2FD8AF80AB0FB
:10C810008AF813B08AF814408F48FDF720F90246D1
:10C8200000238D492868FFF76DFF002606EB86017F
:10C8300001EB08073A79A2B3BA7892BB7B784A46F3
:10C8400018F8010063F3070260F30F22914610B25B
:10C85000FDF77FFB6FF00301FDF7E7F9019003A8F7
:10C860000090701CC2B27C4881A10F38019B00F07F
:10C87000DDFB0198FDF7FEFB024603A80090764819
:10C880000B467DA1233802F00BFB73482338FDF7DC
:10C89000E6F871490246002323392868FFF732FF82
:10C8A0003C71761CF6B20A2EC0D198F8400046467C
:10C8B00048B1694896F83D2005AB72A10F3800F0E9
:10C8C000FDFB86F8404096F8360048B1624896F87D
:10C8D000332005AB72A10F3800F0F0FB86F836402C
:10C8E00096F83B0048B15C4896F8382005AB73A138
:10C8F0000F3800F0E3FB86F83B4096F8E90000288B
:10C900001ED0554856F8DC2F73A374A10F3800F0E1
:10C91000D5FB514878A371A10F38326900F0CEFBE6
:10C920004D4803AB76A10F38B26800F041FB4A488E
:10C9300079A37AA10F38726800F03AFB7473DC3E79
:10C9400096F84000B8B196F83E00A0B93746424884
:10C9500017F83D2F252376A1233802F0A1FA3E488F
:10C960002338FDF77CF83C49024600232339286828
:10C97000FFF7C8FEFC7096F83600B8B196F83400A0
:10C98000A0B93746344817F8332F252368A1233838
:10C9900002F086FA30482338FDF761F82E49024646
:10C9A000002323392868FFF7ADFEFC7096F83B00A2
:10C9B000B8B196F83900A0B93746274817F8382F8C
:10C9C00025235BA1233802F06BFA23482338FDF7B7
:10C9D00046F821490246002323392868FFF792FED2
:10C9E000FC7096F8E90058B31B48D6F8EC2042A337
:10C9F00051A12338E43602F053FA17482338FDF7E3
:10CA00002EF815490246002323392868FFF77AFEDD
:10CA10003068FDF72FFB03AA009202460E480B4632
:10CA200047A1233802F03CFA0B482338FDF717F8EA
:10CA300009490246002323392868FFF763FE747111
:10CA40000023012240A12868FFF75CFEC9E6000030
:10CA5000B043000025000000CF060020AC050020F8
:10CA600068000020880000202E5458540000000068
:10CA700053656E736F720000252E32662C25732C61
:10CA800000000000496E7465726E616C2068756DFF
:10CA900069646974792073656E736F7200000000B9
:10CAA00045787465726E616C2068756D696469742F
:10CAB000792073656E736F7220310000457874655C
:10CAC000726E616C2068756D696469747920736534
:10CAD0006E736F722032000050610000496E746501
:10CAE000726E616C20707265737375726520736508
:10CAF0006E736F72000000006D6D486700000000EB
:10CB0000496E7465726E616C2074656D70657261DA
:10CB100074757265000000006D000000496E746558
:10CB2000726E616C20616C746974756465000000DC
:10CB300025642C25632C000025642C25732C000013
:10CB4000252E32662C2573000A00000010B5012046
:10CB500005F08CFF0349486008B1002010BD01209A
:10CB600010BD00005000002010B5416904460029A6
:10CB700028D00020088061694880616988806169E7
:10CB8000C8806169088161694881204600F024F805
:10CB90000028FAD1206961694088088020696169AC
:10CBA0008088488020696169C088888020696169BF
:10CBB0004089C8802069616980890881206961692C
:10CBC000C089488110BD00004FF40041014800F0C9
:10CBD000D9B800000008014070B50446C06808B12B
:10CBE0008047E8B30F236568207F3A212269A84770
:10CBF000B0BB25692878C0073AD0B5F90800FDF721
:10CC0000B6F900221B4BFDF735F91B4A1B4BFDF70C
:10CC100018F8FDF742FA1A49FCF7C9FFA0616069EC
:10CC2000002824D069880088081A68802069626911
:10CC300081885288891A818020696269C1889288B6
:10CC4000891AC180206962694189D288891A418123
:10CC50002069626981891289891A8181206900E0CD
:10CC600006E06269C1895289891AC181002070BDBC
:10CC7000012070BD00407540A4703D0AD74342407A
:10CC80000000204170B5044680222368007F6B219C
:10CC9000984705003FD1A1684FF4FA708847236890
:10CCA000A27F207F1B2198472368E27F207F1C21E1
:10CCB000984730222368207F372198470122236834
:10CCC000207F3821984700222368207F6A219847D7
:10CCD00000222368207F6B21984700222368207F51
:10CCE0006C21984700222368207F23219847607F8A
:10CCF0004FF47A71B1FBF0F0401EC2B22368207F7E
:10CD00001921984794F82000236800F00702207F3B
:10CD10001A219847284670BD00F01F02012191405A
:10CD20004009800000F1E020C0F80011704708B50C
:10CD3000ADF8001003218DF8021048218DF8031082
:10CD40006946FEF7B9FC08BD416170470161704753
:10CD500008B5ADF8001003218DF8021014218DF8EC
:10CD600003106946FEF7A8FC08BD08B5ADF8001031
:10CD700002218DF8021010218DF803106946FEF78C
:10CD80009BFC08BD806808407047000001490862AC
:10CD90007047000000000E424FF43E7148430249C4
:10CDA000B0FBF1F080B27047CD8B01000168C1602B
:10CDB0004168016170474168C16001680161704765
:10CDC0000168C1604168016170470168C1604168E4
:10CDD000016170470168C160416801617047016885
:10CDE000C1604168016170470168C16041680161CB
:10CDF00070470168C160416801617047016881F056
:10CE00000041C160416881F00041016170470168E3
:10CE100081F00041C1604168016170470168C160F3
:10CE2000416881F00041016170478168C1604168DB
:10CE3000016170470168C160816801617047816864
:10CE4000C1600168016170470168C16041680161AA
:10CE500070470168C16041680161704710B5040006
:10CE600016D0092C15D006DC012C14D0062C08D0C5
:10CE7000082C04D107E00B2C0FD00C2C0FD009A1EB
:10CE800002E00EA100E016A10720FEF7E3FB20461A
:10CE900010BD1CA1F8E727A1F6E72FA1F4E737A101
:10CEA000F2E7000044423A20556E646566696E659B
:10CEB00064206572726F722E0D0A00004661696C03
:10CEC000656420726573746F7265204442206672D7
:10CED0006F6D20454550524F4D210D0A0000000056
:10CEE0004661696C656420726573746F7265204475
:10CEF000422066726F6D20534443617264210D0AB3
:10CF0000000000004661696C656420726573746F8F
:10CF1000726520444221205344206361726420449E
:10CF2000422073697A6520696E636F7272656374FB
:10CF30002E0D0A004661696C656420726573746F1A
:10CF400072652044422120435243206D69736D6114
:10CF50007463682E0D0A00004661696C6564207276
:10CF60006573746F726520444221204F7574206F81
:10CF700066206D656D6F72792E0D0A0044423A206D
:10CF800056616C69646174696F6E206661696C6575
:10CF9000642E2044656661756C74207365747469D1
:10CFA0006E6773206C6F616465642E0D0A0000006B
:10CFB0002DE9FE4380461E4691460F460846FCF783
:10CFC0004EFD04463046FCF74AFD2044253004F06F
:10CFD00029FF04461E2004F025FF0546FEF7C8F988
:10CFE0004846FDF747F88DE843003B462A460BA12B
:10CFF000204601F055FF2046FCF731FD0246002394
:10D0000021464046FFF77EFB0646284605F018FB02
:10D01000204605F015FB3046BDE8FE83257320252C
:10D020007320252E32662025730A00002DE9F04773
:10D0300086B081469A4690460E4608460E9FFCF7FB
:10D040000EFD04463846FCF70AFD20442A3004F061
:10D05000E9FE04461E2004F0E5FE0546FEF788F9C9
:10D060005046FDF707F80DF1080CCDF800808CE86C
:10D07000830033462A460CA1204601F011FF2046CA
:10D08000FCF7EDFC0246002321464846FFF73AFB39
:10D090000646284605F0D4FA204605F0D1FA06B037
:10D0A0003046BDE8F08700002573202573202564F5
:10D0B00020252E32662025730A0000002DE9FC474A
:10D0C00081461E4690460F460846FCF7C8FC0446BB
:10D0D0003046FCF7C4FC2044253004F0A3FE04468F
:10D0E0001E2004F09FFE0546FEF742F9CDE90086BA
:10D0F0003B462A460BA1204601F0D2FE2046FCF713
:10D10000AEFC0246002321464846FFF7FBFA0646DE
:10D11000284605F095FA204605F092FA3046BDE81B
:10D12000FC87000025732025732025692025730ABC
:10D130000000000070B505460C460846FCF78FFC61
:10D14000024621462846BDE870400023FFF7DABAC0
:10D15000044A0029516901D0014300E08143516133
:10D160007047000000100240044A0029D16901D034
:10D17000014300E08143D16170470000001002408C
:10D18000044A0029916901D0014300E08143916183
:10D19000704700000010024001490860704700001D
:10D1A0004004424230B51F494A6812F00C031E4A3F
:10D1B00003D0042B01D0082B21D002604A680F2332
:10D1C0001A4C03EA1212A35C0268DA4042604B6810
:10D1D000072505EA1323E35C22FA03F383604B6817
:10D1E00005EAD323E35CDA40C2604968032303EA1B
:10D1F0009131231F595CB2FBF1F1016130BD4A68E6
:10D200004B6802F470124FF0020413F4803F04EBF9
:10D21000924202D04B689B0301D5054B00E0024BC4
:10D220005A43CAE70010024000127A003801002079
:10D2300000093D000246002053090949012B0BD08B
:10D24000022B0BD0D1F8241002F01F0201239340CF
:10D250000B4200D0012070470968F5E7096AF3E73F
:10D26000001002400649002281F8202081F8202089
:10D27000012802D0042802D1052081F8200070473F
:10D280000010024001490860704700003C0442421F
:10D2900002490A6A02430A62704700000010024015
:10D2A000DFF8A0A0284E294D4FF47A7B4FF00108FB
:10D2B0004FF480674FF40069584605F0EBF90121FF
:10D2C0002846FFF741FD0A2005F0E4F9B07D9AF801
:10D2D0000110544688420AD060700120FFF756FDC5
:10D2E00061782020FDF70AFA0020FFF74FFD08249F
:10D2F000641EE4B2B17D08FA04F0014249462846B2
:10D3000002D0FFF723FD01E0FFF71EFD3946284656
:10D31000FFF71AFD0A2005F0BDF939462846FFF748
:10D3200015FD0A2005F0B6F9002CE1D14946284642
:10D33000FFF70AFD01212846FFF708FD0A2005F046
:10D34000A9F9B9E7340000206C000020001001406A
:10D350004FF47A76304605F09DF9164F164DDFF8FA
:10D360005890164CDFF858B04FF00008243DC7F134
:10D37000000AA76000F046F82060A9F8008028881D
:10D3800040F00100288002E0304605F083F928884B
:10D39000C007F9D1606821680AA3411A01EB0A02AB
:10D3A000E26009A1DBF80000FFF788FE002005F02D
:10D3B00089F9DEE78051010024040040600B002061
:10D3C0006400002073000000436C6F636B20636F88
:10D3D0007272656374696F6E207065722064617922
:10D3E0003A2000000248018841F010010180704796
:10D3F000042800400248018821F010010180704794
:10D4000004280040034800880249091F098840EAAF
:10D41000014070471C28004000B50246FFF7E2FFBC
:10D420000449100C0880081D02805DF804EBFFF72A
:10D43000E1BF00001828004000B50246FFF7D2FF08
:10D440000449C2F303400880081D02805DF804EB24
:10D45000FFF7D0BF08280040024801888906FCD5A4
:10D4600070470000042800400448018821F00801AA
:10D47000018001880907FCD570470000042800409E
:10D4800005F008B92DE9F0411C4C002316468846EA
:10D4900007465A1E1946606805F016FB002002F088
:10D4A000B1FC1749A060C5B24A7902434A71D0B9AC
:10D4B000012214A1144802F093FF1449384603F0E6
:10D4C000F7F8042818D001223946114802F0AEFFBF
:10D4D00020700F4833464146C26803F043F820707D
:10D4E0000B4802F0D7FE00231A461946606805F083
:10D4F000B7FB2846BDE8F0810425F1E75000002085
:10D500009C06002000000000E4060020380B0020EC
:10D510001409002010B5402205490648FCF77BFAA3
:10D52000064805490068BDE8104005F015BC00003C
:10D5300010490020B8020020280000200800002028
:10D540002DE9F04106463248FDF75AFD082004F067
:10D5500069FC0446014608223046FEF789F9074671
:10D560002046FDF747FD00F10A05204605F068F862
:10D5700017B13846BDE8F0812D4826A32A4627A1D9
:10D580000068FFF79BFD284604F04CFC040007D020
:10D5900001462A463046FEF76BF9050002D031E01D
:10D5A0000B20E7E72046FDF725FD58B32046FDF7A1
:10D5B00021FDB0F5967F25D222461E491E48FDF773
:10D5C00029FDC5B21C4822461C490A30FDF722FD40
:10D5D000C6B219482E43224619491330FDF71AFDE9
:10D5E000C5B215483543224616491D30FDF712FDD8
:10D5F000C6B211482E43224613492730FDF70AFDD3
:10D60000C5B23543204605F01BF82846B2E70000B6
:10D610009DAD000862797465730000004442206685
:10D620006F756E64212053697A653A20000000000E
:10D63000640000206C00002020320108A0000020BF
:10D64000600B0020880000203C0C002002F0AEFDA2
:10D65000642005F01FF8F9E708B534208DF80000C4
:10D660000121684600F044F908BD0000064890F822
:10D670004110081F612805D2044801734FF0804013
:10D6800000F0FABB70470000780200206C00002018
:10D6900038B5047C0123C5686A4611212046A84795
:10D6A000002804D19DF80000502801D0FF2038BD8B
:10D6B000002038BDDFF88480214E224C4FF0110944
:10D6C0004FF4FA775FF00105D8F800004FF47A7153
:10D6D000484304F0DFFF86F81290194800F0B6F8CE
:10D6E000384604F0D7FF164800F02EF80028FAD18B
:10D6F000134800F035F884F8CF00B574104800F0F6
:10D70000A5F8384604F0C6FF0D4800F01DF80028C3
:10D71000FAD10B4800F024F884F8CF00317884F86F
:10D72000CE1084F8D15084F8D05084F83E0084F8AC
:10D730003D1084F83F5084F84050C5E78800002031
:10D74000B80B0020AC05002038B5047C0123C56867
:10D750006A4600212046A8479DF8000038BD000019
:10D760002DE9F84304460223E568007C6A4601215E
:10D77000A8478046A07C012810D0BDF8000040BA20
:10D780008008FCF7EFFB6FF00401FCF74EFA284924
:10D79000FCF7D5F960604046BDE8F8839DF80000CD
:10D7A0001838C7B23846FCF7DDFB06462149FCF7BE
:10D7B000CCF9054607FB07F0FCF7D4FB1E49FCF744
:10D7C000C4F92946FCF769F91C49FCF766F90146DA
:10D7D0003046FCF7B4F9FCF701FCC6B22670607C59
:10D7E0000028D8D03046FCF7BDFB1549FCF7ADF951
:10D7F0001449FCF752F9FCF73DFC07460D466068FA
:10D80000FCF738FC0022104BFCF7BCFA3A462B46DA
:10D81000FCF7BEFA07460D463046FCF7B9FB3A4620
:10D820002B46FCF70EFAFCF70CFC2070B3E7000067
:10D8300000004842A835CD3E3BC780BBCE1999C0F9
:10D8400000521B3B03094A3E00003E4030B4047CBA
:10D85000827C8368204630BC032118470029018858
:10D8600002D041F4005101E021F4005101807047E1
:10D870000029018802D041F0400101E021F040017F
:10D88000018070470246002012890A4200D0012020
:10D890007047808970478181704730B502884C8815
:10D8A00002F441530A88CD8822438C882C432243BA
:10D8B0000C8922434C8922438C892243CC89224300
:10D8C0001A430280828B22F400628283098A0182D9
:10D8D00030BD0289520600D5828902899207FCD5A3
:10D8E00081810189C907FCD08089C0B270470000DE
:10D8F000064A10B5131D05E014882406FCD510F85F
:10D90000014B1C80491EC9B2F6D210BD003801403F
:10D910000349086008B100207047082070470000E4
:10D92000EC01002070B50C4C20688168012088470C
:10D930002068416809B100888847206800698047ED
:10D94000054620688168002088472068416809B141
:10D9500000888847284670BDEC0100202DE9F0477B
:10D9600081461B48089C1F460068154688460626C7
:10D9700028B100F091F820B10320BDE8F08708201D
:10D98000FBE709F0FE0000F00BF9E8B9002604E01F
:10D9900018F8010B00F004F9C6B26D1EEDB2F7D213
:10D9A00000F03AF849F0010000F0FAF840B10BE05D
:10D9B0000CB1012000E0002000F04EF807F8010B48
:10D9C000641EA4B2F4D2002600F092F83046D4E7E8
:10D9D000EC01002010B50F4C2068C168002088477A
:10D9E00020688168002088472068416809B1008864
:10D9F00088472068C1680120884720688168012025
:10DA0000884720684168002903D00088BDE810409D
:10DA1000084710BDEC01002010B50E4C2068C1680D
:10DA20000120884720688168012088472068416874
:10DA300009B1008888472068C168002088472068AD
:10DA4000416809B10088884720688168BDE81040B6
:10DA500000200847EC01002070B506460025802410
:10DA6000FFF760FF00B125436408F9D1094C206835
:10DA7000C16846B100208847FFF754FF2068C1689D
:10DA80000120884703E001208847FFF74BFF284625
:10DA900070BD0000EC01002010B5144C2068C16876
:10DAA00001208847206881680120884720684168F4
:10DAB00009B10088884720680069804798B12068CC
:10DAC000C168002088472068416809B100888847FC
:10DAD00020688168002088472068416809B1008873
:10DAE0008847002010BD032010BD0000EC0100207D
:10DAF00010B5104C2068416809B10088884720683B
:10DB0000C168002088472068816801208847206814
:10DB1000416809B1008888472068C16801208847AA
:10DB200020684168002903D00088BDE810400847FC
:10DB300010BD0000EC0100202DE9F0478146174898
:10DB4000089E9846006815460F46062428B1FFF740
:10DB5000A3FF20B10320BDE8F0870820FBE709F010
:10DB6000FE0000F01DF8A8B9002404E017F8010B2E
:10DB700000F016F8C4B26D1EEDB2F7D205E000BF9A
:10DB800018F8010B00F00CF8C4B2761EB6B201D33F
:10DB9000002CF5D0FFF7ACFF2046DCE7EC010020BD
:10DBA00070B50B4D0646802428682642C16801D016
:10DBB000012000E000208847FFF7B4FE6408F3D19D
:10DBC0002868C16801208847BDE87040FFF7AABEF9
:10DBD000EC010020F8B51A4C94F8410004F022F949
:10DBE000184E002305465A1E1946306804F06CFF93
:10DBF000012820D194F84100B8B1B5B1002205E068
:10DC0000A01890F84200A854521CD2B294F84100D7
:10DC10009042F5D80C48C16802F04AFB94F84120C4
:10DC20006B462946084802F0FEFD00231A461946B5
:10DC3000306805F015F82846BDE8F84004F000BD4E
:10DC4000780200205400002088030020F8B5064622
:10DC50004FF496754FF4A07004F0E4F8040039D046
:10DC60002946FBF7F1FE2648FDF7CAF901231C22DD
:10DC7000244925480094FDF7F7F905462248012379
:10DC80003C2222490A300094FDF7EEF905431E4874
:10DC9000012310221E4913300094FDF7E5F90543D6
:10DCA000194801230C221B491D300094FDF7DCF9B3
:10DCB00040EA0507144801230C2217492730009435
:10DCC000FDF7D2F940EA07052046FDF793F9024631
:10DCD00015B109E00B20F8BD012E0AD00123214621
:10DCE0000E48FEF70FFD0546204604F0A9FC284625
:10DCF000F8BD82B2012321460020FDF727FCF2E7A0
:10DD00009DAD00086C00002020320108A00000201A
:10DD1000600B0020880000203C0C00205C000020EC
:10DD20000146002001E0401CC0B211F8012B002A7E
:10DD3000F9D1704710B5BF2080F31188BFF34F8F22
:10DD4000BFF36F8F05F0B6F818B104494FF080505B
:10DD50000860002080F3118810BD000004ED00E091
:10DD60000A4810B5018821F001010180084CA06823
:10DD7000411EA16008D2FFF745FB606003481038E0
:10DD8000018821F00101018010BD00001004004055
:10DD9000600B002010B54FF480510C48FEF7D4FF03
:10DDA0000B48012180F8651090F86420002181540F
:10DDB00080F864100748018821F0010101800548BE
:10DDC0001038018821F00101018010BD00100140D0
:10DDD00010020020100800400029018802D041F004
:10DDE000010101E021F0010101807047002A8289D0
:10DDF00001D00A4300E08A438281704770B5028CEB
:10DE000022F480720284028C8488838B0D8823F034
:10DE100073031D4322F400730E894FF6FF7202EA6A
:10DE200006261E434B8802EA03233343104EB042BA
:10DE300002D0104EB04215D123F400664B8924F471
:10DE4000405402EA0323334323F480668B8802EABA
:10DE5000032333438E8902EA06162643CC8902EA5D
:10DE60000414344384808583C9888187038470BD0A
:10DE7000002C0140003401408187704730B5028892
:10DE80001B4B1C4C98420DD0A0420BD0B0F1804FE0
:10DE900008D0194DA84205D0184DA84202D0184DFF
:10DEA000A84203D122F070054A882A43154DA842A2
:10DEB00006D0154DA84203D022F44075CA882A43E3
:10DEC00002808A8882850A88028598420AD0A04208
:10DED00008D00E4A904205D00D4A904202D00D4A19
:10DEE000904201D1097A01860121818230BD000072
:10DEF000002C0140003401400004004000080040B4
:10DF0000000C0040001000400014004000400140A0
:10DF100000440140004801402DE9F047114D1F46E3
:10DF20009046894606460024B44209D1494628460F
:10DF3000FFF7CFFC41462846FFF7CBFC394608E007
:10DF400000212846FFF7C5FC00212846FFF7C1FC49
:10DF500000212846FFF7BDFC641CE4B2642CE3D129
:10DF6000BDE8F0870038004010B54FF480511048EC
:10DF7000FEF7ECFE0F4890F86410642908D20E49B1
:10DF80000A8890F864104318491C80F864101A70CD
:10DF90000A48018841F0010101800849002024312C
:10DFA00008800548001F018821F02001018010BD74
:10DFB0000010014010020020043801400008004019
:10DFC00010B5C1F3421301F01F040121A140012B40
:10DFD00007D0022B07D01430002A026805D00A436C
:10DFE00004E00C30F8E71030F6E78A43026010BD19
:10DFF00043F23001FDF7EABAF0B58378204A03F026
:10E000000F041E0657688188158803F00F0307EB7D
:10E01000031304D5491C21F001011D6011E09D602E
:10E020003E2909D91F3121F01F014FF0FF3505EBC3
:10E03000411545F4004503E0491C21F001014D0262
:10E04000DD6013880B441380C07810F0030006D005
:10E05000012807D0022808D003280AD107E04FF48E
:10E06000007106E04FF4806103E0002101E04FF40D
:10E07000C061044A214302EB8400C0F8001CF0BDDB
:10E08000CC01002000500040704770470549012234
:10E090000A6000220B1D1A6008B1081500E0032079
:10E0A00008607047405C004010B5084CA288402AC8
:10E0B00000D940228020216800F058FD21680144E9
:10E0C0002160A188081AA08010BD00005C0100201A
:10E0D00010B5064C0020216800F090FA2168014438
:10E0E0002160A188081AA08010BD00005C010020FA
:10E0F00070470021FDF76ABA43F23001FDF766BAB6
:10E100002DE9F041684D002705F10804A4F1180637
:10E110002178082833D2DFE800F032048CB03232A4
:10E12000C2C000F047FC2078C009FFF7E1FFE0889B
:10E13000A8802078C0F3411111B1012974D14AE0BF
:10E1400061780C2970D2DFE801F006096F0B6F0FC0
:10E15000171C1E24303F00F003F90FE0002000E000
:10E16000012000F0ABFA7EE010F01F0F5CD1A07828
:10E1700040F08000307078E000F09CF8B0B3BDE86B
:10E18000F081002051E010F01F0F4DD146480F38AC
:10E1900018E010F01F0F47D100F0D8FA30B300F0AC
:10E1A0000FFCBDE8F041FFF770BF00F01F00012831
:10E1B0003AD17078D0B12079B178884234D23A49D6
:10E1C0000D39084428605AE000F01F0001282BD1C7
:10E1D00000F05AFB47E000F01F00012824D120790D
:10E1E00020B96078314C0C281ED200E018E0DFE83E
:10E1F00000F01B060D131B1B1B1B1B0B1018FDF740
:10E2000059FC0BE02C603AE02C60B8E7FDF73AFCD3
:10E2100004E0FDF761FC06E0FDF742FC0028F1D1C7
:10E2200002E0FDF765FC00BB802000F0A5FBAF809D
:10E23000A5E708061DD4A8880028A0D0FFF748FF4E
:10E24000A88800289BD12078C0F341110029EBD089
:10E250000129E9D100F01F000128E5D1207900282B
:10E26000E2D1FDF74FFC0028DED0BDE8F04100F020
:10E27000A7BBBDE8F04100F0A9BB080603D5BDE887
:10E28000F041FFF711BF30780106BED500F07F00E6
:10E290003070BDE8F04100F009BA802000E00020B5
:10E2A000BDE8F041FFF7A4BE5C010020104900204A
:10E2B000FDF728BB244810B5007810F01F02224853
:10E2C000C178A0F1080002D0012A2FD120E0012955
:10E2D00006D01D4A0229937806D0032926D112E0E0
:10E2E0001A490160122127E01949002204E00C7844
:10E2F0000CB14C882144521C9342F8D10A78AAB13F
:10E300000160498818E0134919440160097813E055
:10E310000D4A2129127902D0222907D105E02AB914
:10E320000B4912310160092106E00AB1002010BD3D
:10E33000094901600949098882888A4200D9818097
:10E34000FFF7B2FE012010BD64010020F032010889
:10E35000023301086C010020CC320108EE320108C2
:10E360002DE9F0411E48007810F01F031C48A0F171
:10E3700008000BD01A49A0F110041A4A402665780B
:10E380000979012B06D0022B28D109E01449143950
:10E3900001601EE015B3A37899421FD2002115E059
:10E3A00001F08F03190605D503F00F074FF48031F4
:10E3B000B94001E0012199400DB91B070ED1A368B6
:10E3C0000B420BD0E3680B42E8D0012111800260C0
:10E3D0008680FFF769FE0120BDE8F0810020FBE7A1
:10E3E00064010020104900200948C16941F400017E
:10E3F000C1610848017841F0100101704FF0E02040
:10E40000D0F8001141F48011C0F8001170470000ED
:10E410000010024005E400E02DE9F047264C256895
:10E42000680506D500F00EF900F03EF96FF4806043
:10E430002060280504D500F0CFFA6FF4006020605A
:10E44000E80404D500F088FB6FF480502060DFF80A
:10E450006C90DFF86C80A80529D56FF400702060FF
:10E4600025E000BF6FF40040206001F00F0609EBCB
:10E470008607D7F8005C28040DD540F68F70284039
:10E48000C7F8000C58F8261029B1280501D501203D
:10E4900000E002208847280609D548F60F7005409D
:10E4A000C7F8005C58F8261009B103208847216896
:10E4B0000804D7D4BDE8F087445C00400050004019
:10E4C00028330108474D484C4FF0FF3600233246B1
:10E4D0001946286804F0F8FA0128F7D194F84000AA
:10E4E000542850D027DC462847D011DC332847D0A9
:10E4F00007DC31283FD03228E8D10020FCF79AFC15
:10E50000E4E7342842D04428E0D100F039FADDE7CE
:10E5100049283ED050283ED0512846D05228D5D147
:10E5200094F8443094F8432094F8421094F8410051
:10E53000FFF7F2FCCAE782283FD010DC572831D021
:10E5400006DC55282BD05628C0D1FFF78FF8BDE741
:10E5500080282FD08128B9D1FCF77CFCB6E783282E
:10E560002ED084283AD085282ED08628AED11F48B8
:10E5700001F090FEAAE70120C0E7FDF77DFEA5E7C8
:10E58000FCF70EFCA2E7FCF7BDFD9FE7FFF764F880
:10E590009CE7012000E00020FDF732F896E7FDF748
:10E5A000DBFE93E7FDF7A4F990E7114994F84100E9
:10E5B00088758BE7FDF77CFB88E7FDF7CDF985E7EC
:10E5C0000020FFF707FB81E70A4801680A4A01F4C7
:10E5D000E06111430160BFF34F8FFEE7FCF70AFFD4
:10E5E00074E7000008000020780200208803002063
:10E5F0006C0000200CED00E00400FA0570B50F4B34
:10E6000000F00F020E4C5B6803EB021293689289D4
:10E6100004EB4303C2F309040022651C05E000BFBC
:10E6200033F8046B21F8026B521CB2EB550FF7D391
:10E630004FF44051FCF7CAFF204670BDCC010020CA
:10E64000006000400F49002008600E4A4FF404416A
:10E65000121F11600B4B20220C330B4918604868C5
:10E66000026060228260A0220A8048F2FF71C160CD
:10E6700004494FF44850443908608020191F08604D
:10E6800070470000445C0040CC0100200448002199
:10E690004FF00112818001704170C0E90221704782
:10E6A0004C010020FCF77EBFFFF7F0BF024940F0AD
:10E6B00080000860704700004C5C004070B5024666
:10E6C0002148A0F11804017811F01F030146498880
:10E6D00004D0012B29D0022B27D111E0012924D10C
:10E6E00032B1012000F040FAA08840F0020005E0BD
:10E6F000002000F039FAA08820F00200A08021E07C
:10E70000007900F08F00030605D500F00F034FF4E9
:10E7100080359D4001E00125854063782BB10307DA
:10E7200003D0A3682B4200D009B1002070BD22B1F4
:10E7300000F022F9E068284303E0FFF759FCE068A5
:10E74000A843E060012070BD640100202DE9F84F6E
:10E750004B4F00200090B8784FF0011B4FF000089D
:10E760004FF001094FF4803AA7F1180600285FD056
:10E77000444C59E06078022804D0042835D005289C
:10E7800050D135E06179B87881422CD13C49707024
:10E7900020791539B07081F800800125B16809FA37
:10E7A00005F0084202D02846FFF7A3FCB1680AFA38
:10E7B00005F0084203D045F08000FFF79AFC6D1C7D
:10E7C000102DEBD335460120C5E902B8FFF75CFCFC
:10E7D000E0798009A88802D040F0010001E020F033
:10E7E0000100A8801EE060881DE0E078009019E03C
:10E7F0000098B8B9A07800F08F05280604D505F078
:10E800000F010AFA01F001E009FA05F0B1680143CD
:10E810002046B160FFF7F0FB2846FFF76DFC284665
:10E82000FFF740FF2078044420780028A2D11EE0A2
:10E830004D4686F8018001244FEA0A09B16805FABD
:10E8400004F0084202D02046FFF753FCB16809FAF1
:10E8500004F0084203D044F08000FFF74AFC641C37
:10E86000102CEBD3C6E902B80020FFF70DFCB878F6
:10E870007178884202D10120BDE8F88F0020FBE7C3
:10E8800064010020023301082DE9FC5F384D0027A8
:10E890003E466878BB46B846002866D0BA46354C36
:10E8A00005F118095DE06078022804D0042808D03A
:10E8B000052854D119E06079697888424FD0608882
:10E8C0004EE0A77899F80410E6784FF00008B942B6
:10E8D00045D199F80200B04241D125484FF0010AD4
:10E8E000C01C10F807B0C65539E099F80410B942B9
:10E8F00035D1A17801F08F010191090605D5019963
:10E9000001F00F024FF4803101E0019A01219140A2
:10E91000009199F80200B04213D1A8680843A8609A
:10E92000E968009881432046E960FFF765FB01989C
:10E93000FFF7E2FB0198FFF7B5FE009948EA0108EE
:10E940000DE05E450BD118EA010F08D1A868884395
:10E95000A860E8688843E8600198FFF7CAFB207860
:10E960000444207800289ED15046BDE8FC9F00005A
:10E970004C0100200233010841F21001FCF726BED1
:10E980000A480B4910F8412F4A7142788A718278FF
:10E99000CA71C27802F5FA620A8002798A704279F5
:10E9A000CA7080790871084603F0A6BB780200207F
:10E9B000500B002001490020FFF720BE6401002019
:10E9C00000221146802000F0D1B80000014900204B
:10E9D000FFF714BE104900200448016841F0080107
:10E9E0000160016841F0040101607047405C004033
:10E9F000FA2003F04FFE00F001F8F9E72DE9F843A3
:10EA0000504800231A466946C06804F05DF84E4E2F
:10EA10004E4A012819D000204D4C804600EB800161
:10EA20002144C978D9B13621117000EB800319193E
:10EA30008D7845EA00105070E05C90704878D07096
:10EA400082F8048081F8038074E087201070501CE5
:10EA50000099FBF719F8009803F0F2FD6AE0401CFA
:10EA6000C0B20F28DAD194F8E800B0B3354F58207F
:10EA70001070083754F8DC0F3860F8785070B878A8
:10EA800090707878D0703878107115466068FBF710
:10EA90008CFA3860F8786871B878A8717878E8717D
:10EAA00038782872208A3880787868723878A87226
:10EAB000A068FBF7DFFA0022264BFBF769F9FBF7AA
:10EAC000A1FA3860F878E872B878287378786873B3
:10EAD0003878A87384F80C802CE0FFE794F8541081
:10EAE00091B1342010705170002004EBC1031D1847
:10EAF0001718401C95F84E50C0B2BD700828F6D1CA
:10EB0000491E84F8541015E094F85510002917D0C8
:10EB1000572010705170002004EBC1031D18171806
:10EB2000401C95F84E50C0B2BD700828F6D1491E61
:10EB300084F8551000231A461946306804F090F8FE
:10EB4000BDE8F883240000200C000020780200209B
:10EB5000AC050020000059400248016821F008017E
:10EB600001607047405C004070470000F0B5104FF6
:10EB7000064600F00F037868144600EB03100D4AB8
:10EB8000006802EB40020020651C04E031F802CB73
:10EB900042F804CB401CB0EB550FF7D37868302116
:10EBA00000EB031044603046FCF710FD2046F0BD3A
:10EBB000CC01002000600040F0B5294A92F86500C1
:10EBC00000281FD0002082F8650010461378417895
:10EBD0002448EE2B08D0342B15D0572B12D1022409
:10EBE00080F85510002336E00F290BD201EB81038A
:10EBF000191894788C70D478C45410794870012016
:10EC0000C8700871F0BD022480F8541000230EE093
:10EC1000002100EBC305165D6F18641C491CC9B2C6
:10EC200087F85660E4B20829F5D15B1CDBB290F896
:10EC300054109942ECD1F0BD002100EBC305165DE4
:10EC40006F18641C491CC9B287F85660E4B20829E1
:10EC5000F5D15B1CDBB290F855109942ECD1F0BDB8
:10EC600010020020AC05002070B50120FEF7EEFF79
:10EC70000C4C20720020FEF7E9FF6072227A0A4DE8
:10EC800022B10AA30AA12868FEF718FA627A002ABC
:10EC900006D02868BDE8704004A30FA1FEF70EBAA5
:10ECA00070BD00009C0600206400002020000000D1
:10ECB0004572726F7220736176696E6720444220DC
:10ECC000746F20454550524F4D2E20204572726F73
:10ECD00072206E756D3A00004572726F722073611A
:10ECE00076696E6720444220746F2053442063612C
:10ECF00072642E204572726F72206E756D3A00003C
:10ED000030B585B00C460546142215A16846FAF7C1
:10ED100082FE684600EB157109782170C5F3036126
:10ED20001DF801106170C5F303511DF80110A170A9
:10ED3000C5F303411DF80110E170C5F303311DF85F
:10ED400001102171C5F30321415C6171C5F3031109
:10ED5000415CA17105F00F01405CE07105B030BD70
:10ED60003031323334353637383941424344454601
:10ED70000000000040214348FAF766FE414CDFF8EE
:10ED80000891424E424FDFF80C81434D4FF0000B8B
:10ED9000C03C4FF47A7AFA2003F07CFC3A4803F046
:10EDA00023F90D20FBF7D0FB302104F8801F31211F
:10EDB00061703221A170B178E170717A2171327A7B
:10EDC000E27184F808B072786272A172F179E1722E
:10EDD00031792173B97D6173010A617404F8120FEE
:10EDE000B079607099F80010A1F5FA61A17099F8F6
:10EDF0000210E17099F80310217199F80410617103
:10EE000099F80510A17199F80610E17199F80700B9
:10EE10002072D8F80C00FBF7C8F8288068782073B7
:10EE200028786073D8F81000FBF7BFF8288068785E
:10EE3000A0732878E07398F834002074387D6074EB
:10EE4000B96838690023414391FBFAF291FBFAF06B
:10EE5000120AA274E074787D2075387B6075F068C2
:10EE60002860E878A075A878E0756878207628781A
:10EE700060760A481A4619460068923C03F0F0FE94
:10EE800089E7000038030020500B00209C0600207A
:10EE90006C000020A00000202C00002010000020AA
:10EEA0000FB4084B10B504A902AA039800F06EF93C
:10EEB000044602A9002000F000FD204610BC5DF8C9
:10EEC00014FB0000BBF80008490050EAC12018BF3D
:10EED00004204A0D18BF40F0010040F2FF72B2EB6F
:10EEE000515F08BF40F00200012808BF05207047AD
:10EEF0002DE9F0414F1E00EBC7010446D1E90001A6
:10EF000015461E4637F006020DD02A463346FAF75C
:10EF10003FFF7F1E04EBC703D3E90023FAF791FEFE
:10EF200037F00602F1D1022F25D0042F13D0062F7F
:10EF300018BFBDE8F0812A463346FAF729FFD4E925
:10EF40000A23FAF77EFE2A463346FAF721FFD4E970
:10EF50000823FAF776FE2A463346FAF719FFD4E972
:10EF60000623FAF76EFE2A463346FAF711FFD4E974
:10EF70000423FAF766FE2A463346FAF709FFD4E976
:10EF80000223FAF75EFE2A463346FAF701FFD4E978
:10EF90000023BDE8F041FAF754BE000000221346FA
:10EFA00010460149FAF766BF0000F03FFAF749BE84
:10EFB0000022134610461146FAF75CBF40F20132B8
:10EFC00000204FF0E041FBF7A5B90000024A002005
:10EFD0001107FBF79FB9000001FDFFFF02E008C821
:10EFE000121F08C1002AFAD170477047002001E0C3
:10EFF00001C1121F002AFBD17047000001490860BF
:10F00000704700000C0200202DE9FF5F82B0002154
:10F01000DDE90430020DDDF840B0034318D044F6BA
:10F020001050A2F2FF3242431514119801281FD04C
:10F03000A5EB0B00401C5FEA000A4FF000064E4FA4
:10F04000DFF83891B046504615D5CAF1000413E0F8
:10F05000119801244AA3012801D16FEA0B010298FB
:10F06000119AC0E90031C0E9024206B0BDE8F09F44
:10F07000CBF10000DFE704460021404A491842EB8B
:10F080000450CDE9001012E0E00707D032463B46BD
:10F0900040464946FAF77CFE8046894632463B4662
:10F0A00010461946FAF774FE06460F466410002C07
:10F0B000EAD1DDE90401DDE90023BAF1000F06DA47
:10F0C000FAF766FE42464B46FAF762FE05E0FAF7AB
:10F0D000D1FE42464B46FAF7CDFE04460E460022CC
:10F0E000284BFBF747F903D84FF0FF30014607E004
:10F0F0000022254B20463146FAF7A3FDFBF721F904
:10F10000102409E0002C0ADB0A220023FBF70CF88C
:10F11000039B30321A55641E50EA0102F2D1641C7E
:10F12000039AC4F111031444119A012A03D0012255
:10F1300008430DD10AE0084304D000204FF0110B22
:10F14000119072E7A3EB0B056D1E0DE05B4504DD2E
:10F150004FF0000205F1010504E003DA4FF0000270
:10F16000A5F10105002AECD002981199C0E90231FD
:10F17000C0E9004579E70000000014400000F03FBE
:10F18000300000000000F0430000E03F2DE9FF4F99
:10F1900095B09B468946064600250FE2252877D183
:10F1A00000242746F84A0121059400E0044316F89C
:10F1B000013F203B01FA03F01042F7D130782A28B2
:10F1C00011D06FF02F033078A0F13002092A16D841
:10F1D000059A44F0020402EB820203EB420210445F
:10F1E000761C0590EFE759F8042B0592002A03DA04
:10F1F000504244F40054059044F00204761C3078E8
:10F200002E2816D116F8010F44F004042A280DD038
:10F210006FF02F023078A0F13003092B09D807EBEB
:10F22000870302EB4303C718761CF3E759F8047B06
:10F23000761C30786C280FD006DC4C2817D0682854
:10F240000DD06A2814D104E0742810D07A280FD188
:10F250000DE044F400140AE044F4801401E044F4A6
:10F2600040147278824202D104F58014761C761C18
:10F27000307866280BD013DC582877D009DC0028BA
:10F2800075D04528F6D04628F4D047281AD19DE1FC
:10F2900018E0632835D0642879D0652812D195E12B
:10F2A000702873D008DC6728F1D069286FD06E28E9
:10F2B0000DD06F2806D1B5E073282CD0752875D0F5
:10F2C000782874D05A46179990476D1C75E1C4F39D
:10F2D0000250022809D003280DD0D9F800100428C4
